{
  "contractName": "KYC",
  "abi": [
    {
      "inputs": [],
      "stateMutability": "nonpayable",
      "type": "constructor"
    },
    {
      "anonymous": false,
      "inputs": [],
      "name": "BankBlockedFromKYC",
      "type": "event"
    },
    {
      "anonymous": false,
      "inputs": [],
      "name": "BankRemoved",
      "type": "event"
    },
    {
      "anonymous": false,
      "inputs": [],
      "name": "ContractInitialized",
      "type": "event"
    },
    {
      "anonymous": false,
      "inputs": [],
      "name": "CustomerInfoModified",
      "type": "event"
    },
    {
      "anonymous": false,
      "inputs": [],
      "name": "CustomerRemoved",
      "type": "event"
    },
    {
      "anonymous": false,
      "inputs": [],
      "name": "CustomerRequestAdded",
      "type": "event"
    },
    {
      "anonymous": false,
      "inputs": [],
      "name": "CustomerRequestApproved",
      "type": "event"
    },
    {
      "anonymous": false,
      "inputs": [],
      "name": "CustomerRequestRemoved",
      "type": "event"
    },
    {
      "anonymous": false,
      "inputs": [],
      "name": "NewBankCreated",
      "type": "event"
    },
    {
      "anonymous": false,
      "inputs": [],
      "name": "NewCustomerCreated",
      "type": "event"
    },
    {
      "inputs": [
        {
          "internalType": "string",
          "name": "custName",
          "type": "string"
        },
        {
          "internalType": "string",
          "name": "custData",
          "type": "string"
        }
      ],
      "name": "addNewCustomerRequest",
      "outputs": [
        {
          "internalType": "int256",
          "name": "",
          "type": "int256"
        }
      ],
      "stateMutability": "payable",
      "type": "function",
      "payable": true
    },
    {
      "inputs": [
        {
          "internalType": "string",
          "name": "custName",
          "type": "string"
        }
      ],
      "name": "removeCustomerRequest",
      "outputs": [
        {
          "internalType": "int256",
          "name": "",
          "type": "int256"
        }
      ],
      "stateMutability": "payable",
      "type": "function",
      "payable": true
    },
    {
      "inputs": [
        {
          "internalType": "string",
          "name": "custName",
          "type": "string"
        },
        {
          "internalType": "string",
          "name": "custData",
          "type": "string"
        }
      ],
      "name": "addCustomer",
      "outputs": [],
      "stateMutability": "payable",
      "type": "function",
      "payable": true
    },
    {
      "inputs": [
        {
          "internalType": "string",
          "name": "custName",
          "type": "string"
        }
      ],
      "name": "removeCustomer",
      "outputs": [
        {
          "internalType": "int256",
          "name": "",
          "type": "int256"
        }
      ],
      "stateMutability": "payable",
      "type": "function",
      "payable": true
    },
    {
      "inputs": [
        {
          "internalType": "string",
          "name": "custName",
          "type": "string"
        },
        {
          "internalType": "string",
          "name": "custData",
          "type": "string"
        }
      ],
      "name": "modifyCustomer",
      "outputs": [
        {
          "internalType": "int256",
          "name": "",
          "type": "int256"
        }
      ],
      "stateMutability": "payable",
      "type": "function",
      "payable": true
    },
    {
      "inputs": [
        {
          "internalType": "string",
          "name": "custName",
          "type": "string"
        }
      ],
      "name": "viewCustomerData",
      "outputs": [
        {
          "internalType": "string",
          "name": "",
          "type": "string"
        },
        {
          "internalType": "bool",
          "name": "",
          "type": "bool"
        }
      ],
      "stateMutability": "payable",
      "type": "function",
      "payable": true
    },
    {
      "inputs": [
        {
          "internalType": "string",
          "name": "custName",
          "type": "string"
        }
      ],
      "name": "getCustomerKycStatus",
      "outputs": [
        {
          "internalType": "bool",
          "name": "",
          "type": "bool"
        }
      ],
      "stateMutability": "payable",
      "type": "function",
      "payable": true
    },
    {
      "inputs": [
        {
          "internalType": "string",
          "name": "custName",
          "type": "string"
        }
      ],
      "name": "upVoteCustomer",
      "outputs": [
        {
          "internalType": "int256",
          "name": "",
          "type": "int256"
        }
      ],
      "stateMutability": "payable",
      "type": "function",
      "payable": true
    },
    {
      "inputs": [
        {
          "internalType": "string",
          "name": "custName",
          "type": "string"
        }
      ],
      "name": "downVoteCustomer",
      "outputs": [
        {
          "internalType": "int256",
          "name": "",
          "type": "int256"
        }
      ],
      "stateMutability": "payable",
      "type": "function",
      "payable": true
    },
    {
      "inputs": [
        {
          "internalType": "address",
          "name": "suspiciousBankAddress",
          "type": "address"
        }
      ],
      "name": "reportSuspectedBank",
      "outputs": [
        {
          "internalType": "int256",
          "name": "",
          "type": "int256"
        }
      ],
      "stateMutability": "payable",
      "type": "function",
      "payable": true
    },
    {
      "inputs": [
        {
          "internalType": "address",
          "name": "suspiciousBankAddress",
          "type": "address"
        }
      ],
      "name": "getReportCountOfBank",
      "outputs": [
        {
          "internalType": "uint256",
          "name": "",
          "type": "uint256"
        }
      ],
      "stateMutability": "payable",
      "type": "function",
      "payable": true
    },
    {
      "inputs": [
        {
          "internalType": "string",
          "name": "bankName",
          "type": "string"
        },
        {
          "internalType": "string",
          "name": "regNumber",
          "type": "string"
        },
        {
          "internalType": "address",
          "name": "ethAddress",
          "type": "address"
        }
      ],
      "name": "addBank",
      "outputs": [],
      "stateMutability": "payable",
      "type": "function",
      "payable": true
    },
    {
      "inputs": [
        {
          "internalType": "address",
          "name": "ethAddress",
          "type": "address"
        }
      ],
      "name": "removeBank",
      "outputs": [
        {
          "internalType": "int256",
          "name": "",
          "type": "int256"
        }
      ],
      "stateMutability": "payable",
      "type": "function",
      "payable": true
    },
    {
      "inputs": [
        {
          "internalType": "address",
          "name": "ethAddress",
          "type": "address"
        }
      ],
      "name": "blockBankFromKYC",
      "outputs": [
        {
          "internalType": "int256",
          "name": "",
          "type": "int256"
        }
      ],
      "stateMutability": "payable",
      "type": "function",
      "payable": true
    },
    {
      "inputs": [
        {
          "internalType": "address",
          "name": "ethAddress",
          "type": "address"
        }
      ],
      "name": "blockBankFromVoting",
      "outputs": [
        {
          "internalType": "int256",
          "name": "",
          "type": "int256"
        }
      ],
      "stateMutability": "payable",
      "type": "function",
      "payable": true
    }
  ],
  "bytecode": "0x608060405234801561001057600080fd5b507f9f4eefba9f06bdd612ec93892ddb6d0bf72365e3835c1159ce2f0b9f172bfcbd60405160405180910390a1336000806101000a81548173ffffffffffffffffffffffffffffffffffffffff021916908373ffffffffffffffffffffffffffffffffffffffff1602179055506132008061008c6000396000f3fe6080604052600436106100e85760003560e01c8063761055161161008a578063d318f52a11610059578063d318f52a146102d6578063f72860ca14610306578063fc55ea9d14610336578063feca20f314610366576100e8565b8063761055161461021657806382e0438a146102465780639649650c146102765780639de31c97146102a6576100e8565b806347f88689116100c657806347f88689146101695780634a6c2f6114610185578063569e64bc146101b657806358f1a736146101e6576100e8565b806322bdc74f146100ed5780633190abc01461011d5780634777777314610139575b600080fd5b6101076004803603810190610102919061242f565b610396565b60405161011491906124c0565b60405180910390f35b6101376004803603810190610132919061242f565b61065e565b005b610153600480360381019061014e9190612539565b6108e8565b604051610160919061257f565b60405180910390f35b610183600480360381019061017e919061259a565b610a04565b005b61019f600480360381019061019a9190612625565b610e6e565b6040516101ad929190612708565b60405180910390f35b6101d060048036038101906101cb9190612625565b611011565b6040516101dd91906124c0565b60405180910390f35b61020060048036038101906101fb9190612539565b6112b7565b60405161020d91906124c0565b60405180910390f35b610230600480360381019061022b9190612625565b6113f5565b60405161023d9190612738565b60405180910390f35b610260600480360381019061025b9190612625565b6114e7565b60405161026d91906124c0565b60405180910390f35b610290600480360381019061028b9190612539565b61178d565b60405161029d91906124c0565b60405180910390f35b6102c060048036038101906102bb9190612539565b6119f9565b6040516102cd91906124c0565b60405180910390f35b6102f060048036038101906102eb9190612625565b611b5b565b6040516102fd91906124c0565b60405180910390f35b610320600480360381019061031b919061242f565b611cc8565b60405161032d91906124c0565b60405180910390f35b610350600480360381019061034b9190612625565b611e41565b60405161035d91906124c0565b60405180910390f35b610380600480360381019061037b9190612539565b612077565b60405161038d91906124c0565b60405180910390f35b6000600360003373ffffffffffffffffffffffffffffffffffffffff1673ffffffffffffffffffffffffffffffffffffffff16815260200190815260200160002060040160159054906101000a900460ff16610427576040517f08c379a000000000000000000000000000000000000000000000000000000000815260040161041e906127c5565b60405180910390fd5b600073ffffffffffffffffffffffffffffffffffffffff1660058460405161044f9190612821565b908152602001604051809103902060020160009054906101000a900473ffffffffffffffffffffffffffffffffffffffff1673ffffffffffffffffffffffffffffffffffffffff16036104d7576040517f08c379a00000000000000000000000000000000000000000000000000000000081526004016104ce906128aa565b60405180910390fd5b60405180608001604052808481526020018381526020013373ffffffffffffffffffffffffffffffffffffffff168152602001600015158152506005846040516105219190612821565b908152602001604051809103902060008201518160000190816105449190612ad6565b50602082015181600101908161055a9190612ad6565b5060408201518160020160006101000a81548173ffffffffffffffffffffffffffffffffffffffff021916908373ffffffffffffffffffffffffffffffffffffffff16021790555060608201518160020160146101000a81548160ff021916908315150217905550905050600360003373ffffffffffffffffffffffffffffffffffffffff1673ffffffffffffffffffffffffffffffffffffffff168152602001908152602001600020600301600081548092919061061890612bd7565b91905055507f77674323c9addb5bcc6b003586f229ab03cceb4b6615c4f940a53400d66c6ee260405160405180910390a16106543360006121d9565b6001905092915050565b600360003373ffffffffffffffffffffffffffffffffffffffff1673ffffffffffffffffffffffffffffffffffffffff16815260200190815260200160002060040160149054906101000a900460ff166106ed576040517f08c379a00000000000000000000000000000000000000000000000000000000081526004016106e490612c91565b60405180910390fd5b600073ffffffffffffffffffffffffffffffffffffffff166002836040516107159190612821565b908152602001604051809103902060040160009054906101000a900473ffffffffffffffffffffffffffffffffffffffff1673ffffffffffffffffffffffffffffffffffffffff161461079d576040517f08c379a000000000000000000000000000000000000000000000000000000000815260040161079490612d23565b60405180910390fd5b6040518060c0016040528083815260200182815260200160008152602001600081526020013373ffffffffffffffffffffffffffffffffffffffff168152602001600015158152506002836040516107f59190612821565b908152602001604051809103902060008201518160000190816108189190612ad6565b50602082015181600101908161082e9190612ad6565b50604082015181600201556060820151816003015560808201518160040160006101000a81548173ffffffffffffffffffffffffffffffffffffffff021916908373ffffffffffffffffffffffffffffffffffffffff16021790555060a08201518160040160146101000a81548160ff0219169083151502179055509050506108b83360036121d9565b7f4c6541f9347fca00dea4d3481bc4250f9da4dfadea36b089156983c44572652960405160405180910390a15050565b60008073ffffffffffffffffffffffffffffffffffffffff16600360008473ffffffffffffffffffffffffffffffffffffffff1673ffffffffffffffffffffffffffffffffffffffff16815260200190815260200160002060040160009054906101000a900473ffffffffffffffffffffffffffffffffffffffff1673ffffffffffffffffffffffffffffffffffffffff16036109ba576040517f08c379a00000000000000000000000000000000000000000000000000000000081526004016109b190612d8f565b60405180910390fd5b600360008373ffffffffffffffffffffffffffffffffffffffff1673ffffffffffffffffffffffffffffffffffffffff168152602001908152602001600020600201549050919050565b60008054906101000a900473ffffffffffffffffffffffffffffffffffffffff1673ffffffffffffffffffffffffffffffffffffffff163373ffffffffffffffffffffffffffffffffffffffff1614610a92576040517f08c379a0000000000000000000000000000000000000000000000000000000008152600401610a8990612dfb565b60405180910390fd5b610b66600360008373ffffffffffffffffffffffffffffffffffffffff1673ffffffffffffffffffffffffffffffffffffffff1681526020019081526020016000206000018054610ae2906128f9565b80601f0160208091040260200160405190810160405280929190818152602001828054610b0e906128f9565b8015610b5b5780601f10610b3057610100808354040283529160200191610b5b565b820191906000526020600020905b815481529060010190602001808311610b3e57829003601f168201915b50505050508461224a565b15610ba6576040517f08c379a0000000000000000000000000000000000000000000000000000000008152600401610b9d90612e8d565b60405180910390fd5b600073ffffffffffffffffffffffffffffffffffffffff16600484604051610bce9190612821565b908152602001604051809103902060040160009054906101000a900473ffffffffffffffffffffffffffffffffffffffff1673ffffffffffffffffffffffffffffffffffffffff1603610c56576040517f08c379a0000000000000000000000000000000000000000000000000000000008152600401610c4d90612f1f565b60405180910390fd5b60405180610100016040528084815260200183815260200160008152602001600081526020018273ffffffffffffffffffffffffffffffffffffffff16815260200160011515815260200160011515815260200160011515815250600360008373ffffffffffffffffffffffffffffffffffffffff1673ffffffffffffffffffffffffffffffffffffffff1681526020019081526020016000206000820151816000019081610d059190612ad6565b506020820151816001019081610d1b9190612ad6565b50604082015181600201556060820151816003015560808201518160040160006101000a81548173ffffffffffffffffffffffffffffffffffffffff021916908373ffffffffffffffffffffffffffffffffffffffff16021790555060a08201518160040160146101000a81548160ff02191690831515021790555060c08201518160040160156101000a81548160ff02191690831515021790555060e08201518160040160166101000a81548160ff0219169083151502179055509050506001819080600181540180825580915050600190039060005260206000200160009091909190916101000a81548173ffffffffffffffffffffffffffffffffffffffff021916908373ffffffffffffffffffffffffffffffffffffffff1602179055507fea039736c82e1db09740bc97125aa1faa739571127eee02deed2054dfa248fc860405160405180910390a1505050565b606060008073ffffffffffffffffffffffffffffffffffffffff16600284604051610e999190612821565b908152602001604051809103902060040160009054906101000a900473ffffffffffffffffffffffffffffffffffffffff1673ffffffffffffffffffffffffffffffffffffffff1603610f21576040517f08c379a0000000000000000000000000000000000000000000000000000000008152600401610f1890612f8b565b60405180910390fd5b610f2c3360096121d9565b600283604051610f3c9190612821565b9081526020016040518091039020600101600284604051610f5d9190612821565b908152602001604051809103902060040160149054906101000a900460ff16818054610f88906128f9565b80601f0160208091040260200160405190810160405280929190818152602001828054610fb4906128f9565b80156110015780601f10610fd657610100808354040283529160200191611001565b820191906000526020600020905b815481529060010190602001808311610fe457829003601f168201915b5050505050915091509150915091565b6000600360003373ffffffffffffffffffffffffffffffffffffffff1673ffffffffffffffffffffffffffffffffffffffff16815260200190815260200160002060040160169054906101000a900460ff166110a2576040517f08c379a000000000000000000000000000000000000000000000000000000000815260040161109990612c91565b60405180910390fd5b600073ffffffffffffffffffffffffffffffffffffffff166002836040516110ca9190612821565b908152602001604051809103902060040160009054906101000a900473ffffffffffffffffffffffffffffffffffffffff1673ffffffffffffffffffffffffffffffffffffffff1603611152576040517f08c379a000000000000000000000000000000000000000000000000000000000815260040161114990612f8b565b60405180910390fd5b6002826040516111629190612821565b9081526020016040518091039020600201600081548092919061118490612bd7565b91905055506002826040516111999190612821565b9081526020016040518091039020600301546002836040516111bb9190612821565b90815260200160405180910390206002015411801561120b575060036001805490506111e79190612fda565b6002836040516111f79190612821565b908152602001604051809103902060020154115b60028360405161121b9190612821565b908152602001604051809103902060040160146101000a81548160ff021916908315150217905550426006836040516112549190612821565b908152602001604051809103902060003373ffffffffffffffffffffffffffffffffffffffff1673ffffffffffffffffffffffffffffffffffffffff168152602001908152602001600020819055506112ae3360076121d9565b60019050919050565b60008073ffffffffffffffffffffffffffffffffffffffff16600360008473ffffffffffffffffffffffffffffffffffffffff1673ffffffffffffffffffffffffffffffffffffffff16815260200190815260200160002060040160009054906101000a900473ffffffffffffffffffffffffffffffffffffffff1673ffffffffffffffffffffffffffffffffffffffff1603611389576040517f08c379a000000000000000000000000000000000000000000000000000000000815260040161138090612d8f565b60405180910390fd5b600360008373ffffffffffffffffffffffffffffffffffffffff1673ffffffffffffffffffffffffffffffffffffffff16815260200190815260200160002060020160008154809291906113dc90612bd7565b91905055506113ec33600a6121d9565b60019050919050565b60008073ffffffffffffffffffffffffffffffffffffffff1660028360405161141e9190612821565b908152602001604051809103902060040160009054906101000a900473ffffffffffffffffffffffffffffffffffffffff1673ffffffffffffffffffffffffffffffffffffffff16036114a6576040517f08c379a000000000000000000000000000000000000000000000000000000000815260040161149d90612f8b565b60405180910390fd5b6114b13360096121d9565b6002826040516114c19190612821565b908152602001604051809103902060040160149054906101000a900460ff169050919050565b6000600360003373ffffffffffffffffffffffffffffffffffffffff1673ffffffffffffffffffffffffffffffffffffffff16815260200190815260200160002060040160169054906101000a900460ff16611578576040517f08c379a000000000000000000000000000000000000000000000000000000000815260040161156f90612c91565b60405180910390fd5b600073ffffffffffffffffffffffffffffffffffffffff166002836040516115a09190612821565b908152602001604051809103902060040160009054906101000a900473ffffffffffffffffffffffffffffffffffffffff1673ffffffffffffffffffffffffffffffffffffffff1603611628576040517f08c379a000000000000000000000000000000000000000000000000000000000815260040161161f90612f8b565b60405180910390fd5b6002826040516116389190612821565b9081526020016040518091039020600301600081548092919061165a90612bd7565b919050555060028260405161166f9190612821565b9081526020016040518091039020600301546002836040516116919190612821565b9081526020016040518091039020600201541180156116e1575060036001805490506116bd9190612fda565b6002836040516116cd9190612821565b908152602001604051809103902060020154115b6002836040516116f19190612821565b908152602001604051809103902060040160146101000a81548160ff0219169083151502179055504260078360405161172a9190612821565b908152602001604051809103902060003373ffffffffffffffffffffffffffffffffffffffff1673ffffffffffffffffffffffffffffffffffffffff168152602001908152602001600020819055506117843360086121d9565b60019050919050565b60008060009054906101000a900473ffffffffffffffffffffffffffffffffffffffff1673ffffffffffffffffffffffffffffffffffffffff163373ffffffffffffffffffffffffffffffffffffffff161461181e576040517f08c379a000000000000000000000000000000000000000000000000000000000815260040161181590613057565b60405180910390fd5b600073ffffffffffffffffffffffffffffffffffffffff16600360008473ffffffffffffffffffffffffffffffffffffffff1673ffffffffffffffffffffffffffffffffffffffff16815260200190815260200160002060040160009054906101000a900473ffffffffffffffffffffffffffffffffffffffff1673ffffffffffffffffffffffffffffffffffffffff16036118ef576040517f08c379a00000000000000000000000000000000000000000000000000000000081526004016118e6906130c3565b60405180910390fd5b600360008373ffffffffffffffffffffffffffffffffffffffff1673ffffffffffffffffffffffffffffffffffffffff1681526020019081526020016000206000808201600061193f9190612278565b60018201600061194f9190612278565b600282016000905560038201600090556004820160006101000a81549073ffffffffffffffffffffffffffffffffffffffff02191690556004820160146101000a81549060ff02191690556004820160156101000a81549060ff02191690556004820160166101000a81549060ff021916905550507f8f261acc6c1370714440b89569252ed12c53b14fbc3f82ec18c4c51d5624a8d560405160405180910390a160019050919050565b60008073ffffffffffffffffffffffffffffffffffffffff16600360008473ffffffffffffffffffffffffffffffffffffffff1673ffffffffffffffffffffffffffffffffffffffff16815260200190815260200160002060040160009054906101000a900473ffffffffffffffffffffffffffffffffffffffff1673ffffffffffffffffffffffffffffffffffffffff1603611acb576040517f08c379a0000000000000000000000000000000000000000000000000000000008152600401611ac2906130c3565b60405180910390fd5b6000600360008473ffffffffffffffffffffffffffffffffffffffff1673ffffffffffffffffffffffffffffffffffffffff16815260200190815260200160002060040160156101000a81548160ff0219169083151502179055507f8d18c97747c469726cbbbb52de08cafc7ca8960e44797006c5b12cb5102fb36f60405160405180910390a160019050919050565b60003373ffffffffffffffffffffffffffffffffffffffff16600583604051611b849190612821565b908152602001604051809103902060020160009054906101000a900473ffffffffffffffffffffffffffffffffffffffff1673ffffffffffffffffffffffffffffffffffffffff1614611c0c576040517f08c379a0000000000000000000000000000000000000000000000000000000008152600401611c039061317b565b60405180910390fd5b600582604051611c1c9190612821565b908152602001604051809103902060008082016000611c3b9190612278565b600182016000611c4b9190612278565b6002820160006101000a81549073ffffffffffffffffffffffffffffffffffffffff02191690556002820160146101000a81549060ff021916905550507ff5f9e9f658ee003be769df33464a9b0b2aff2f6b87d00fae4841c3ee7b15d1d060405160405180910390a1611cbf3360016121d9565b60019050919050565b60008073ffffffffffffffffffffffffffffffffffffffff16600284604051611cf19190612821565b908152602001604051809103902060040160009054906101000a900473ffffffffffffffffffffffffffffffffffffffff1673ffffffffffffffffffffffffffffffffffffffff1603611d79576040517f08c379a0000000000000000000000000000000000000000000000000000000008152600401611d7090612f8b565b60405180910390fd5b611d8283611b5b565b5081600284604051611d949190612821565b90815260200160405180910390206001019081611db19190612ad6565b506000600284604051611dc49190612821565b9081526020016040518091039020600201819055506000600284604051611deb9190612821565b908152602001604051809103902060030181905550611e0b3360056121d9565b7f95c2f7a105324c7fa5514b8057959f35022187c1ab5843416c2a866bef6f851f60405160405180910390a16001905092915050565b60008073ffffffffffffffffffffffffffffffffffffffff16600283604051611e6a9190612821565b908152602001604051809103902060040160009054906101000a900473ffffffffffffffffffffffffffffffffffffffff1673ffffffffffffffffffffffffffffffffffffffff1603611ef2576040517f08c379a0000000000000000000000000000000000000000000000000000000008152600401611ee990612f8b565b60405180910390fd5b3373ffffffffffffffffffffffffffffffffffffffff16600283604051611f199190612821565b908152602001604051809103902060040160009054906101000a900473ffffffffffffffffffffffffffffffffffffffff1673ffffffffffffffffffffffffffffffffffffffff1614611fa1576040517f08c379a0000000000000000000000000000000000000000000000000000000008152600401611f989061317b565b60405180910390fd5b600282604051611fb19190612821565b908152602001604051809103902060008082016000611fd09190612278565b600182016000611fe09190612278565b600282016000905560038201600090556004820160006101000a81549073ffffffffffffffffffffffffffffffffffffffff02191690556004820160146101000a81549060ff0219169055505061203682611b5b565b506120423360046121d9565b7f3edcd2181fb96d7880de1988d300e5cdaa1631a0f75841bf58d1cfff039892f460405160405180910390a160019050919050565b60008073ffffffffffffffffffffffffffffffffffffffff16600360008473ffffffffffffffffffffffffffffffffffffffff1673ffffffffffffffffffffffffffffffffffffffff16815260200190815260200160002060040160009054906101000a900473ffffffffffffffffffffffffffffffffffffffff1673ffffffffffffffffffffffffffffffffffffffff1603612149576040517f08c379a0000000000000000000000000000000000000000000000000000000008152600401612140906130c3565b60405180910390fd5b6000600360008473ffffffffffffffffffffffffffffffffffffffff1673ffffffffffffffffffffffffffffffffffffffff16815260200190815260200160002060040160166101000a81548160ff0219169083151502179055507f8d18c97747c469726cbbbb52de08cafc7ca8960e44797006c5b12cb5102fb36f60405160405180910390a160019050919050565b600081600a8111156121ee576121ed61319b565b5b905042600860008573ffffffffffffffffffffffffffffffffffffffff1673ffffffffffffffffffffffffffffffffffffffff168152602001908152602001600020600083815260200190815260200160002081905550505050565b6000815183511461225e5760009050612272565b818051906020012083805190602001201490505b92915050565b508054612284906128f9565b6000825580601f1061229657506122b5565b601f0160209004906000526020600020908101906122b491906122b8565b5b50565b5b808211156122d15760008160009055506001016122b9565b5090565b6000604051905090565b600080fd5b600080fd5b600080fd5b600080fd5b6000601f19601f8301169050919050565b7f4e487b7100000000000000000000000000000000000000000000000000000000600052604160045260246000fd5b61233c826122f3565b810181811067ffffffffffffffff8211171561235b5761235a612304565b5b80604052505050565b600061236e6122d5565b905061237a8282612333565b919050565b600067ffffffffffffffff82111561239a57612399612304565b5b6123a3826122f3565b9050602081019050919050565b82818337600083830152505050565b60006123d26123cd8461237f565b612364565b9050828152602081018484840111156123ee576123ed6122ee565b5b6123f98482856123b0565b509392505050565b600082601f830112612416576124156122e9565b5b81356124268482602086016123bf565b91505092915050565b60008060408385031215612446576124456122df565b5b600083013567ffffffffffffffff811115612464576124636122e4565b5b61247085828601612401565b925050602083013567ffffffffffffffff811115612491576124906122e4565b5b61249d85828601612401565b9150509250929050565b6000819050919050565b6124ba816124a7565b82525050565b60006020820190506124d560008301846124b1565b92915050565b600073ffffffffffffffffffffffffffffffffffffffff82169050919050565b6000612506826124db565b9050919050565b612516816124fb565b811461252157600080fd5b50565b6000813590506125338161250d565b92915050565b60006020828403121561254f5761254e6122df565b5b600061255d84828501612524565b91505092915050565b6000819050919050565b61257981612566565b82525050565b60006020820190506125946000830184612570565b92915050565b6000806000606084860312156125b3576125b26122df565b5b600084013567ffffffffffffffff8111156125d1576125d06122e4565b5b6125dd86828701612401565b935050602084013567ffffffffffffffff8111156125fe576125fd6122e4565b5b61260a86828701612401565b925050604061261b86828701612524565b9150509250925092565b60006020828403121561263b5761263a6122df565b5b600082013567ffffffffffffffff811115612659576126586122e4565b5b61266584828501612401565b91505092915050565b600081519050919050565b600082825260208201905092915050565b60005b838110156126a857808201518184015260208101905061268d565b60008484015250505050565b60006126bf8261266e565b6126c98185612679565b93506126d981856020860161268a565b6126e2816122f3565b840191505092915050565b60008115159050919050565b612702816126ed565b82525050565b6000604082019050818103600083015261272281856126b4565b905061273160208301846126f9565b9392505050565b600060208201905061274d60008301846126f9565b92915050565b7f5265717565737465642042616e6b20646f6573276e742068617665204b59432060008201527f50726976696c6567650000000000000000000000000000000000000000000000602082015250565b60006127af602983612679565b91506127ba82612753565b604082019050919050565b600060208201905081810360008301526127de816127a2565b9050919050565b600081905092915050565b60006127fb8261266e565b61280581856127e5565b935061281581856020860161268a565b80840191505092915050565b600061282d82846127f0565b915081905092915050565b7f41204b5943205265717565737420697320616c72656164792070656e64696e6760008201527f2077697468207468697320437573746f6d657200000000000000000000000000602082015250565b6000612894603383612679565b915061289f82612838565b604082019050919050565b600060208201905081810360008301526128c381612887565b9050919050565b7f4e487b7100000000000000000000000000000000000000000000000000000000600052602260045260246000fd5b6000600282049050600182168061291157607f821691505b602082108103612924576129236128ca565b5b50919050565b60008190508160005260206000209050919050565b60006020601f8301049050919050565b600082821b905092915050565b60006008830261298c7fffffffffffffffffffffffffffffffffffffffffffffffffffffffffffffffff8261294f565b612996868361294f565b95508019841693508086168417925050509392505050565b6000819050919050565b60006129d36129ce6129c984612566565b6129ae565b612566565b9050919050565b6000819050919050565b6129ed836129b8565b612a016129f9826129da565b84845461295c565b825550505050565b600090565b612a16612a09565b612a218184846129e4565b505050565b5b81811015612a4557612a3a600082612a0e565b600181019050612a27565b5050565b601f821115612a8a57612a5b8161292a565b612a648461293f565b81016020851015612a73578190505b612a87612a7f8561293f565b830182612a26565b50505b505050565b600082821c905092915050565b6000612aad60001984600802612a8f565b1980831691505092915050565b6000612ac68383612a9c565b9150826002028217905092915050565b612adf8261266e565b67ffffffffffffffff811115612af857612af7612304565b5b612b0282546128f9565b612b0d828285612a49565b600060209050601f831160018114612b405760008415612b2e578287015190505b612b388582612aba565b865550612ba0565b601f198416612b4e8661292a565b60005b82811015612b7657848901518255600182019150602085019450602081019050612b51565b86831015612b935784890151612b8f601f891682612a9c565b8355505b6001600288020188555050505b505050505050565b7f4e487b7100000000000000000000000000000000000000000000000000000000600052601160045260246000fd5b6000612be282612566565b91507fffffffffffffffffffffffffffffffffffffffffffffffffffffffffffffffff8203612c1457612c13612ba8565b5b600182019050919050565b7f5265717565737465642042616e6b20646f6573206e6f74206861766520566f7460008201527f696e672050726976696c65676500000000000000000000000000000000000000602082015250565b6000612c7b602d83612679565b9150612c8682612c1f565b604082019050919050565b60006020820190508181036000830152612caa81612c6e565b9050919050565b7f52657175657374656420437573746f6d657220616c726561647920657869737460008201527f7300000000000000000000000000000000000000000000000000000000000000602082015250565b6000612d0d602183612679565b9150612d1882612cb1565b604082019050919050565b60006020820190508181036000830152612d3c81612d00565b9050919050565b7f5265717565737465642042616e6b206e6f7420666f756e640000000000000000600082015250565b6000612d79601883612679565b9150612d8482612d43565b602082019050919050565b60006020820190508181036000830152612da881612d6c565b9050919050565b7f4f6e6c792061646d696e2063616e206164642062616e6b000000000000000000600082015250565b6000612de5601783612679565b9150612df082612daf565b602082019050919050565b60006020820190508181036000830152612e1481612dd8565b9050919050565b7f412042616e6b20616c72656164792065786973747320776974682073616d652060008201527f6e616d6500000000000000000000000000000000000000000000000000000000602082015250565b6000612e77602483612679565b9150612e8282612e1b565b604082019050919050565b60006020820190508181036000830152612ea681612e6a565b9050919050565b7f412042616e6b20616c72656164792065786973747320776974682073616d652060008201527f726567697374726174696f6e206e756d62657200000000000000000000000000602082015250565b6000612f09603383612679565b9150612f1482612ead565b604082019050919050565b60006020820190508181036000830152612f3881612efc565b9050919050565b7f52657175657374656420437573746f6d6572206e6f7420666f756e6400000000600082015250565b6000612f75601c83612679565b9150612f8082612f3f565b602082019050919050565b60006020820190508181036000830152612fa481612f68565b9050919050565b7f4e487b7100000000000000000000000000000000000000000000000000000000600052601260045260246000fd5b6000612fe582612566565b9150612ff083612566565b92508261300057612fff612fab565b5b828204905092915050565b7f4f6e6c792061646d696e2063616e2072656d6f76652062616e6b000000000000600082015250565b6000613041601a83612679565b915061304c8261300b565b602082019050919050565b6000602082019050818103600083015261307081613034565b9050919050565b7f42616e6b206e6f7420666f756e64000000000000000000000000000000000000600082015250565b60006130ad600e83612679565b91506130b882613077565b602082019050919050565b600060208201905081810360008301526130dc816130a0565b9050919050565b7f5265717565737465642042616e6b206973206e6f7420617574686f72697a656460008201527f20746f2072656d6f7665207468697320637573746f6d6572206173204b59432060208201527f6973206e6f7420696e6974696174656420627920796f75000000000000000000604082015250565b6000613165605783612679565b9150613170826130e3565b606082019050919050565b6000602082019050818103600083015261319481613158565b9050919050565b7f4e487b7100000000000000000000000000000000000000000000000000000000600052602160045260246000fdfea26469706673582212205ae06b6500c50532b5b3b5524a86e40c82f5bd9baabeb28eefa50bf9ea637f9464736f6c63430008110033",
  "immutableReferences": {},
  "source": "// SPDX-License-Identifier: MIT\npragma solidity >=0.4.22 <0.9.0;\n\ncontract KYC {\n  \n    address admin;\n\n    enum BankActions {\n        AddKYC,\n        RemoveKYC,\n        ApproveKYC,\n        AddCustomer,\n        RemoveCustomer,\n        ModifyCustomer,\n        DeleteCustomer,\n        UpVoteCustomer,\n        DownVoteCustomer,\n        ViewCustomer,\n        ReportSuspectedBank\n    }\n\n    struct Customer {\n        string name;\n        string data;\n        uint256 upVotes;\n        uint256 downVotes;\n        address validatedBank;\n        bool kycStatus;\n    }\n\n    struct Bank {\n        string name;\n        string regNumber;\n        uint256 suspiciousVotes;\n        uint256 kycCount;\n        address ethAddress;\n        bool isAllowedToAddCustomer;\n        bool kycPrivilege;\n        bool votingPrivilege;\n    }\n\n    struct Request {\n        string customerName;\n        string customerData;\n        address bankAddress;\n        bool isAllowed;\n    }\n    event ContractInitialized();\n    event CustomerRequestAdded();\n    event CustomerRequestRemoved();\n    event CustomerRequestApproved();\n\n    event NewCustomerCreated();\n    event CustomerRemoved();\n    event CustomerInfoModified();\n\n    event NewBankCreated();\n    event BankRemoved();\n    event BankBlockedFromKYC();\n\n    constructor() public {\n        emit ContractInitialized();\n        admin = msg.sender;\n    }\n\n\n    address[] bankAddresses;    //  To keep list of bank addresses. So that we can loop through when required\n\n    mapping(string => Customer) customersInfo;  //  Mapping a customer's username to the Customer\n    mapping(address => Bank) banks; //  Mapping a bank's address to the Bank\n    mapping(string => Bank) bankVsRegNoMapping; //  Mapping a bank's registration number to the Bank\n    mapping(string => Request) kycRequests; //  Mapping a customer's username to KYC request\n    mapping(string => mapping(address => uint256)) upvotes; //To track upVotes of all customers vs banks\n    mapping(string => mapping(address => uint256)) downvotes; //To track downVotes of all customers vs banks\n    mapping(address => mapping(int => uint256)) bankActionsAudit; //To track downVotes of all customers vs banks\n\n    /********************************************************************************************************************\n     *\n     *  Name        :   addNewCustomerRequest\n     *  Description :   This function is used to add the KYC request to the requests list. If kycPermission is set to false bank wont be allowed to add requests for any customer.\n     *  Parameters  :\n     *      @param  {string} custName :  The name of the customer for whom KYC is to be done\n     *      @param  {string} custData :  The hash of the customer data as a string.\n     *\n     *******************************************************************************************************************/\n    function addNewCustomerRequest(string memory custName, string memory custData) public payable returns(int){\n        require(banks[msg.sender].kycPrivilege, \"Requested Bank does'nt have KYC Privilege\");\n        require(kycRequests[custName].bankAddress != address(0), \"A KYC Request is already pending with this Customer\");\n\n        kycRequests[custName] = Request(custName,custData, msg.sender, false);\n        banks[msg.sender].kycCount++;\n\n        emit CustomerRequestAdded();\n        auditBankAction(msg.sender,BankActions.AddKYC);\n\n        return 1;\n    }\n\n    /********************************************************************************************************************\n     *\n     *  Name        :   removeCustomerRequest\n     *  Description :   This function will remove the request from the requests list.\n     *  Parameters  :\n     *      @param  {string} custName :  The name of the customer for whom KYC request has to be deleted\n     *\n     *******************************************************************************************************************/\n\n    function removeCustomerRequest(string memory custName) public payable returns(int){\n        require(kycRequests[custName].bankAddress ==msg.sender, \"Requested Bank is not authorized to remove this customer as KYC is not initiated by you\");\n        delete kycRequests[custName];\n        emit CustomerRequestRemoved();\n        auditBankAction(msg.sender,BankActions.RemoveKYC);\n        return 1;\n    }\n\n    /********************************************************************************************************************\n     *\n     *  Name        :   addCustomer\n     *  Description :   This function will add a customer to the customer list. If IsAllowed is false then don't process\n     *                  the request.\n     *  Parameters  :\n     *      param {string} custName :  The name of the customer\n     *      param {string} custData :  The hash of the customer data as a string.\n     *\n     *******************************************************************************************************************/\n    function addCustomer(string memory custName,string memory custData) public payable {\n        require(banks[msg.sender].isAllowedToAddCustomer, \"Requested Bank does not have Voting Privilege\");\n        require(customersInfo[custName].validatedBank == address(0), \"Requested Customer already exists\");\n\n        customersInfo[custName] = Customer(custName, custData, 0,0,msg.sender,false);\n\n        auditBankAction(msg.sender,BankActions.AddCustomer);\n\n        emit NewCustomerCreated();\n    }\n\n    /********************************************************************************************************************\n     *\n     *  Name        :   removeCustomer\n     *  Description :   This function will remove the customer from the customer list. Remove the kyc requests of that customer\n     *                  too. Only the bank which added the customer can remove him.\n     *  Parameters  :\n     *      @param  {string} custName :  The name of the customer\n     *\n     *******************************************************************************************************************/\n\n    function removeCustomer(string memory custName) public payable returns(int){\n        require(customersInfo[custName].validatedBank != address(0), \"Requested Customer not found\");\n        require(customersInfo[custName].validatedBank ==msg.sender, \"Requested Bank is not authorized to remove this customer as KYC is not initiated by you\");\n\n        delete customersInfo[custName];\n        removeCustomerRequest(custName);\n        auditBankAction(msg.sender,BankActions.RemoveCustomer);\n        emit CustomerRemoved();\n        return 1;\n    }\n\n    /********************************************************************************************************************\n     *\n     *  Name        :   modifyCustomer\n     *  Description :   This function allows a bank to modify a customer's data. This will remove the customer from the kyc\n     *                  request list and set the number of downvote and upvote to zero.\n     *  Parameters  :\n     *      @param  {string} custName :  The name of the customer\n     *      @param  {string} custData :  The hash of the customer data as a string.\n     *\n     *******************************************************************************************************************/\n\n    function modifyCustomer(string memory custName,string memory custData) public payable returns(int){\n        require(customersInfo[custName].validatedBank != address(0), \"Requested Customer not found\");\n        removeCustomerRequest(custName);\n\n        customersInfo[custName].data = custData;\n        customersInfo[custName].upVotes = 0;\n        customersInfo[custName].downVotes = 0;\n\n        auditBankAction(msg.sender,BankActions.ModifyCustomer);\n        emit CustomerInfoModified();\n\n        return 1;\n    }\n\n    /********************************************************************************************************************\n     *\n     *  Name        :   viewCustomerData\n     *  Description :   This function allows a bank to view details of a customer.\n     *  Parameters  :\n     *      @param  {string} custName :  The name of the customer\n     *\n     *******************************************************************************************************************/\n\n    function viewCustomerData(string memory custName) public payable returns(string memory,bool){\n        require(customersInfo[custName].validatedBank != address(0), \"Requested Customer not found\");\n        auditBankAction(msg.sender,BankActions.ViewCustomer);\n        return (customersInfo[custName].data,customersInfo[custName].kycStatus);\n    }\n\n    /********************************************************************************************************************\n     *\n     *  Name        :   getCustomerKycStatus\n     *  Description :   This function is used to fetch customer kyc status from the smart contract. If true then the customer\n     *                  is verified.\n     *  Parameters  :\n     *      @param  {string} custName :  The name of the customer\n     *\n     *******************************************************************************************************************/\n\n    function getCustomerKycStatus(string memory custName) public payable returns(bool){\n        require(customersInfo[custName].validatedBank != address(0), \"Requested Customer not found\");\n        auditBankAction(msg.sender,BankActions.ViewCustomer);\n        return (customersInfo[custName].kycStatus);\n    }\n\n    /********************************************************************************************************************\n     *\n     *  Name        :   upVoteCustomer\n     *  Description :   This function allows a bank to cast an upvote for a customer. This vote from a bank means that\n     *                  it accepts the customer details as well acknowledge the KYC process done by some bank on the customer.\n     *  Parameters  :\n     *      @param  {string} custName :  The name of the customer\n     *\n     *******************************************************************************************************************/\n\n    function upVoteCustomer(string memory custName) public payable returns(int){\n        require(banks[msg.sender].votingPrivilege, \"Requested Bank does not have Voting Privilege\");\n        require(customersInfo[custName].validatedBank != address(0), \"Requested Customer not found\");\n        customersInfo[custName].upVotes++;\n        customersInfo[custName].kycStatus = (customersInfo[custName].upVotes > customersInfo[custName].downVotes && customersInfo[custName].upVotes >  bankAddresses.length/3);\n        upvotes[custName][msg.sender] = block.timestamp;\n        auditBankAction(msg.sender,BankActions.UpVoteCustomer);\n        return 1;\n    }\n\n    /********************************************************************************************************************\n     *\n     *  Name        :   downVoteCustomer\n     *  Description :   This function allows a bank to cast an downvote for a customer. This vote from a bank means that\n     *                  it does not accept the customer details.\n     *  Parameters  :\n     *      @param  {string} custName :  The name of the customer\n     *\n     *******************************************************************************************************************/\n    function downVoteCustomer(string memory custName) public payable returns(int){\n        require(banks[msg.sender].votingPrivilege, \"Requested Bank does not have Voting Privilege\");\n        require(customersInfo[custName].validatedBank != address(0), \"Requested Customer not found\");\n        customersInfo[custName].downVotes++;\n        customersInfo[custName].kycStatus = (customersInfo[custName].upVotes > customersInfo[custName].downVotes && customersInfo[custName].upVotes >  bankAddresses.length/3);\n        downvotes[custName][msg.sender] = block.timestamp;\n        auditBankAction(msg.sender,BankActions.DownVoteCustomer);\n        return 1;\n    }\n\n    /********************************************************************************************************************\n     *\n     *  Name        :   reportSuspectedBank\n     *  Description :   This function allows a bank to report doubt/suspicion about another bank\n     *  Parameters  :\n     *      @param  {string} custName :  The address of the bank which is suspicious\n     *\n     *******************************************************************************************************************/\n    function reportSuspectedBank(address suspiciousBankAddress) public payable returns(int){\n        require(banks[suspiciousBankAddress].ethAddress != address(0), \"Requested Bank not found\");\n        banks[suspiciousBankAddress].suspiciousVotes++;\n\n        auditBankAction(msg.sender,BankActions.ReportSuspectedBank);\n        return 1;\n    }\n\n    /********************************************************************************************************************\n     *\n     *  Name        :   getReportCountOfBank\n     *  Description :   This function is used to fetch bank doubt/suspicion reports from the smart contract.\n     *  Parameters  :\n     *      @param  {string} custName :  The address of the bank which is suspicious\n     *\n     *******************************************************************************************************************/\n    function getReportCountOfBank(address suspiciousBankAddress) public payable returns(uint256){\n        require(banks[suspiciousBankAddress].ethAddress != address(0), \"Requested Bank not found\");\n        return banks[suspiciousBankAddress].suspiciousVotes;\n    }\n\n\n\n    /********************************************************************************************************************\n     *\n     *  Name        :   addBank\n     *  Description :   This function is used by the admin to add a bank to the KYC Contract. You need to verify if the\n     *                  user trying to call this function is admin or not.\n     *  Parameters  :\n     *      param  {string} bankName :  The name of the bank/organisation.\n     *      param  {string} regNumber :   registration number for the bank. This is unique.\n     *      param  {address} ethAddress :  The  unique Ethereum address of the bank/organisation\n     *\n     *******************************************************************************************************************/\n    function addBank(string memory bankName,string memory regNumber,address ethAddress) public payable {\n\n        require(msg.sender==admin, \"Only admin can add bank\");\n        require(!areBothStringSame(banks[ethAddress].name,bankName), \"A Bank already exists with same name\");\n        require(bankVsRegNoMapping[bankName].ethAddress != address(0), \"A Bank already exists with same registration number\");\n\n        banks[ethAddress] = Bank(bankName,regNumber,0,0,ethAddress,true,true,true);\n        bankAddresses.push(ethAddress);\n\n        emit NewBankCreated();\n    }\n\n    /********************************************************************************************************************\n     *\n     *  Name        :   removeBank\n     *  Description :   This function is used by the admin to remove a bank from the KYC Contract.\n     *                  You need to verify if the user trying to call this function is admin or not.\n     *  Parameters  :\n     *      @param  {address} ethAddress :  The  unique Ethereum address of the bank/organisation\n     *\n     *******************************************************************************************************************/\n    function removeBank(address ethAddress) public payable returns(int){\n        require(msg.sender==admin, \"Only admin can remove bank\");\n        require(banks[ethAddress].ethAddress != address(0), \"Bank not found\");\n\n        delete banks[ethAddress];\n\n        emit BankRemoved();\n        return 1;\n    }\n\n    /********************************************************************************************************************\n     *\n     *  Name        :   blockBankFromKYC\n     *  Description :   This function can only be used by the admin to change the status of kycPermission of any of the\n     *                  banks at any point of the time.\n     *  Parameters  :\n     *      @param  {address} ethAddress :  The  unique Ethereum address of the bank/organisation\n     *\n     *******************************************************************************************************************/\n    function blockBankFromKYC(address ethAddress) public payable returns(int){\n        require(banks[ethAddress].ethAddress != address(0), \"Bank not found\");\n        banks[ethAddress].kycPrivilege = false;\n        emit BankBlockedFromKYC();\n        return 1;\n    }\n\n    /********************************************************************************************************************\n     *\n     *  Name        :   blockBankFromVoting\n     *  Description :   This function can only be used by the admin to change the voting privilegen of any of the\n     *                  banks at any point of the time.\n     *  Parameters  :\n     *      @param  {address} ethAddress :  The  unique Ethereum address of the bank/organisation\n     *\n     *******************************************************************************************************************/\n    function blockBankFromVoting(address ethAddress) public payable returns(int){\n        require(banks[ethAddress].ethAddress != address(0), \"Bank not found\");\n        banks[ethAddress].votingPrivilege = false;\n        emit BankBlockedFromKYC();\n        return 1;\n    }\n\n\n    /*********************************************************\n    *            Internal functions\n    *********************************************************/\n\n    /********************************************************************************************************************\n     *\n     *  Name        :   auditBankAction\n     *  Description :   This is an internal function is to track all the actions done by any bank\n     *  Parameters  :\n     *      param  {address} changesDoneBy :   Ethereum address of the Bank who made the change\n     *      param  {BankActions} bankAction :  The ENUM value of action done by the bank\n     *\n     *******************************************************************************************************************/\n\n    function auditBankAction(address changesDoneBy, BankActions bankAction) private {\n        uint ba = uint(bankAction);\n        bankActionsAudit[changesDoneBy][int(ba)] = block.timestamp;\n    }\n\n    /********************************************************************************************************************\n     *\n     *  Name        :   areBothStringSame\n     *  Description :   This is an internal function is verify equality of strings\n     *  Parameters  :\n     *      @param {string} a :   1st string\n     *      @param  {string} b :   2nd string\n     *\n     *******************************************************************************************************************/\n    function areBothStringSame(string memory a, string memory b) private pure returns (bool) {\n        if(bytes(a).length != bytes(b).length) {\n            return false;\n        } else {\n            return keccak256(bytes(a)) == keccak256(bytes(b));\n        }\n    }\n}\n",
  "sourcePath": "C:\\Users\\jihen\\OneDrive\\Desktop\\Projet\\Backend\\contracts\\KYC.sol",
  "compiler": {
    "name": "solc",
    "version": "0.8.17+commit.8df45f5f.Emscripten.clang"
  },
  "schemaVersion": "3.4.11",
  "updatedAt": "2022-12-03T21:13:46.932Z",
  "networkType": "ethereum",
  "devdoc": {
    "kind": "dev",
    "methods": {},
    "version": 1
  },
  "userdoc": {
    "kind": "user",
    "methods": {},
    "version": 1
  }
}